{
	"_format": "hh-sol-artifact-1",
	"contractName": "NFT",
	"sourceName": "contracts/NFT.sol",
	"abi": [
		{
			"inputs": [],
			"stateMutability": "nonpayable",
			"type": "constructor"
		},
		{
			"anonymous": false,
			"inputs": [
				{
					"indexed": true,
					"internalType": "address",
					"name": "owner",
					"type": "address"
				},
				{
					"indexed": true,
					"internalType": "address",
					"name": "approved",
					"type": "address"
				},
				{
					"indexed": true,
					"internalType": "uint256",
					"name": "tokenId",
					"type": "uint256"
				}
			],
			"name": "Approval",
			"type": "event"
		},
		{
			"anonymous": false,
			"inputs": [
				{
					"indexed": true,
					"internalType": "address",
					"name": "owner",
					"type": "address"
				},
				{
					"indexed": true,
					"internalType": "address",
					"name": "operator",
					"type": "address"
				},
				{
					"indexed": false,
					"internalType": "bool",
					"name": "approved",
					"type": "bool"
				}
			],
			"name": "ApprovalForAll",
			"type": "event"
		},
		{
			"anonymous": false,
			"inputs": [
				{
					"indexed": true,
					"internalType": "address",
					"name": "from",
					"type": "address"
				},
				{
					"indexed": true,
					"internalType": "address",
					"name": "to",
					"type": "address"
				},
				{
					"indexed": true,
					"internalType": "uint256",
					"name": "tokenId",
					"type": "uint256"
				}
			],
			"name": "Transfer",
			"type": "event"
		},
		{
			"inputs": [
				{
					"internalType": "address",
					"name": "to",
					"type": "address"
				},
				{
					"internalType": "uint256",
					"name": "tokenId",
					"type": "uint256"
				}
			],
			"name": "approve",
			"outputs": [],
			"stateMutability": "nonpayable",
			"type": "function"
		},
		{
			"inputs": [
				{
					"internalType": "address",
					"name": "owner",
					"type": "address"
				}
			],
			"name": "balanceOf",
			"outputs": [
				{
					"internalType": "uint256",
					"name": "",
					"type": "uint256"
				}
			],
			"stateMutability": "view",
			"type": "function"
		},
		{
			"inputs": [],
			"name": "baseURI",
			"outputs": [
				{
					"internalType": "string",
					"name": "",
					"type": "string"
				}
			],
			"stateMutability": "view",
			"type": "function"
		},
		{
			"inputs": [
				{
					"internalType": "uint256",
					"name": "tokenId",
					"type": "uint256"
				}
			],
			"name": "getApproved",
			"outputs": [
				{
					"internalType": "address",
					"name": "",
					"type": "address"
				}
			],
			"stateMutability": "view",
			"type": "function"
		},
		{
			"inputs": [],
			"name": "getItem",
			"outputs": [
				{
					"internalType": "uint256",
					"name": "",
					"type": "uint256"
				}
			],
			"stateMutability": "payable",
			"type": "function"
		},
		{
			"inputs": [
				{
					"internalType": "address",
					"name": "owner",
					"type": "address"
				},
				{
					"internalType": "address",
					"name": "operator",
					"type": "address"
				}
			],
			"name": "isApprovedForAll",
			"outputs": [
				{
					"internalType": "bool",
					"name": "",
					"type": "bool"
				}
			],
			"stateMutability": "view",
			"type": "function"
		},
		{
			"inputs": [
				{
					"internalType": "uint256",
					"name": "",
					"type": "uint256"
				}
			],
			"name": "itemValue",
			"outputs": [
				{
					"internalType": "uint256",
					"name": "",
					"type": "uint256"
				}
			],
			"stateMutability": "view",
			"type": "function"
		},
		{
			"inputs": [],
			"name": "myItems",
			"outputs": [
				{
					"internalType": "uint256[]",
					"name": "items",
					"type": "uint256[]"
				}
			],
			"stateMutability": "view",
			"type": "function"
		},
		{
			"inputs": [],
			"name": "name",
			"outputs": [
				{
					"internalType": "string",
					"name": "",
					"type": "string"
				}
			],
			"stateMutability": "view",
			"type": "function"
		},
		{
			"inputs": [
				{
					"internalType": "uint256",
					"name": "tokenId",
					"type": "uint256"
				}
			],
			"name": "ownerOf",
			"outputs": [
				{
					"internalType": "address",
					"name": "",
					"type": "address"
				}
			],
			"stateMutability": "view",
			"type": "function"
		},
		{
			"inputs": [
				{
					"internalType": "address",
					"name": "from",
					"type": "address"
				},
				{
					"internalType": "address",
					"name": "to",
					"type": "address"
				},
				{
					"internalType": "uint256",
					"name": "tokenId",
					"type": "uint256"
				}
			],
			"name": "safeTransferFrom",
			"outputs": [],
			"stateMutability": "nonpayable",
			"type": "function"
		},
		{
			"inputs": [
				{
					"internalType": "address",
					"name": "from",
					"type": "address"
				},
				{
					"internalType": "address",
					"name": "to",
					"type": "address"
				},
				{
					"internalType": "uint256",
					"name": "tokenId",
					"type": "uint256"
				},
				{
					"internalType": "bytes",
					"name": "_data",
					"type": "bytes"
				}
			],
			"name": "safeTransferFrom",
			"outputs": [],
			"stateMutability": "nonpayable",
			"type": "function"
		},
		{
			"inputs": [
				{
					"internalType": "address",
					"name": "operator",
					"type": "address"
				},
				{
					"internalType": "bool",
					"name": "approved",
					"type": "bool"
				}
			],
			"name": "setApprovalForAll",
			"outputs": [],
			"stateMutability": "nonpayable",
			"type": "function"
		},
		{
			"inputs": [
				{
					"internalType": "bytes4",
					"name": "interfaceId",
					"type": "bytes4"
				}
			],
			"name": "supportsInterface",
			"outputs": [
				{
					"internalType": "bool",
					"name": "",
					"type": "bool"
				}
			],
			"stateMutability": "view",
			"type": "function"
		},
		{
			"inputs": [],
			"name": "symbol",
			"outputs": [
				{
					"internalType": "string",
					"name": "",
					"type": "string"
				}
			],
			"stateMutability": "view",
			"type": "function"
		},
		{
			"inputs": [
				{
					"internalType": "uint256",
					"name": "index",
					"type": "uint256"
				}
			],
			"name": "tokenByIndex",
			"outputs": [
				{
					"internalType": "uint256",
					"name": "",
					"type": "uint256"
				}
			],
			"stateMutability": "view",
			"type": "function"
		},
		{
			"inputs": [
				{
					"internalType": "address",
					"name": "owner",
					"type": "address"
				},
				{
					"internalType": "uint256",
					"name": "index",
					"type": "uint256"
				}
			],
			"name": "tokenOfOwnerByIndex",
			"outputs": [
				{
					"internalType": "uint256",
					"name": "",
					"type": "uint256"
				}
			],
			"stateMutability": "view",
			"type": "function"
		},
		{
			"inputs": [
				{
					"internalType": "uint256",
					"name": "tokenId",
					"type": "uint256"
				}
			],
			"name": "tokenURI",
			"outputs": [
				{
					"internalType": "string",
					"name": "",
					"type": "string"
				}
			],
			"stateMutability": "view",
			"type": "function"
		},
		{
			"inputs": [],
			"name": "totalSupply",
			"outputs": [
				{
					"internalType": "uint256",
					"name": "",
					"type": "uint256"
				}
			],
			"stateMutability": "view",
			"type": "function"
		},
		{
			"inputs": [
				{
					"internalType": "address",
					"name": "from",
					"type": "address"
				},
				{
					"internalType": "address",
					"name": "to",
					"type": "address"
				},
				{
					"internalType": "uint256",
					"name": "tokenId",
					"type": "uint256"
				}
			],
			"name": "transferFrom",
			"outputs": [],
			"stateMutability": "nonpayable",
			"type": "function"
		}
	],
	"bytecode": "0x6080604052620493e0600c553480156200001857600080fd5b50604080518082018252600a815269125919595e984813919560b21b60208083019190915282518084019093526005835264125113919560da1b9083015290620000696301ffc9a760e01b620000d3565b81516200007e90600690602085019062000158565b5080516200009490600790602084019062000158565b50620000a76380ac58cd60e01b620000d3565b620000b9635b5e139f60e01b620000d3565b620000cb63780e9d6360e01b620000d3565b5050620001f4565b6001600160e01b0319808216141562000133576040805162461bcd60e51b815260206004820152601c60248201527f4552433136353a20696e76616c696420696e7465726661636520696400000000604482015290519081900360640190fd5b6001600160e01b0319166000908152602081905260409020805460ff19166001179055565b828054600181600116156101000203166002900490600052602060002090601f016020900481019282601f106200019b57805160ff1916838001178555620001cb565b82800160010185558215620001cb579182015b82811115620001cb578251825591602001919060010190620001ae565b50620001d9929150620001dd565b5090565b5b80821115620001d95760008155600101620001de565b611dcb80620002046000396000f3fe60806040526004361061011f5760003560e01c80634f6ccce7116100a0578063a22cb46511610064578063a22cb4651461049d578063b88d4fde146104d8578063c412eaba146105ab578063c87b56dd146105b3578063e985e9c5146105dd5761011f565b80634f6ccce7146103ec5780636352211e146104165780636c0360eb1461044057806370a082311461045557806395d89b41146104885761011f565b806318160ddd116100e757806318160ddd146102dc578063221c77b81461030357806323b872dd1461032d5780632f745c591461037057806342842e0e146103a95761011f565b806301ffc9a71461012457806306fdde031461016c578063081812fc146101f6578063095ea7b31461023c57806310dd7a4c14610277575b600080fd5b34801561013057600080fd5b506101586004803603602081101561014757600080fd5b50356001600160e01b031916610618565b604080519115158252519081900360200190f35b34801561017857600080fd5b5061018161063b565b6040805160208082528351818301528351919283929083019185019080838360005b838110156101bb5781810151838201526020016101a3565b50505050905090810190601f1680156101e85780820380516001836020036101000a031916815260200191505b509250505060405180910390f35b34801561020257600080fd5b506102206004803603602081101561021957600080fd5b50356106d1565b604080516001600160a01b039092168252519081900360200190f35b34801561024857600080fd5b506102756004803603604081101561025f57600080fd5b506001600160a01b038135169060200135610733565b005b34801561028357600080fd5b5061028c61080e565b60408051602080825283518183015283519192839290830191858101910280838360005b838110156102c85781810151838201526020016102b0565b505050509050019250505060405180910390f35b3480156102e857600080fd5b506102f16108b0565b60408051918252519081900360200190f35b34801561030f57600080fd5b506102f16004803603602081101561032657600080fd5b50356108c1565b34801561033957600080fd5b506102756004803603606081101561035057600080fd5b506001600160a01b038135811691602081013590911690604001356108d3565b34801561037c57600080fd5b506102f16004803603604081101561039357600080fd5b506001600160a01b03813516906020013561092a565b3480156103b557600080fd5b50610275600480360360608110156103cc57600080fd5b506001600160a01b03813581169160208101359091169060400135610955565b3480156103f857600080fd5b506102f16004803603602081101561040f57600080fd5b5035610970565b34801561042257600080fd5b506102206004803603602081101561043957600080fd5b5035610986565b34801561044c57600080fd5b506101816109ae565b34801561046157600080fd5b506102f16004803603602081101561047857600080fd5b50356001600160a01b0316610a0f565b34801561049457600080fd5b50610181610a77565b3480156104a957600080fd5b50610275600480360360408110156104c057600080fd5b506001600160a01b0381351690602001351515610ad8565b3480156104e457600080fd5b50610275600480360360808110156104fb57600080fd5b6001600160a01b0382358116926020810135909116916040820135919081019060808101606082013564010000000081111561053657600080fd5b82018360208201111561054857600080fd5b8035906020019184600183028401116401000000008311171561056a57600080fd5b91908080601f016020809104026020016040519081016040528093929190818152602001838380828437600092019190915250929550610bdd945050505050565b6102f1610c3b565b3480156105bf57600080fd5b50610181600480360360208110156105d657600080fd5b5035610c90565b3480156105e957600080fd5b506101586004803603604081101561060057600080fd5b506001600160a01b0381358116916020013516610f37565b6001600160e01b0319811660009081526020819052604090205460ff165b919050565b60068054604080516020601f60026000196101006001881615020190951694909404938401819004810282018101909252828152606093909290918301828280156106c75780601f1061069c576101008083540402835291602001916106c7565b820191906000526020600020905b8154815290600101906020018083116106aa57829003601f168201915b5050505050905090565b60006106dc82610f65565b6107175760405162461bcd60e51b815260040180806020018281038252602c815260200180611cc0602c913960400191505060405180910390fd5b506000908152600460205260409020546001600160a01b031690565b600061073e82610986565b9050806001600160a01b0316836001600160a01b031614156107915760405162461bcd60e51b8152600401808060200182810382526021815260200180611d446021913960400191505060405180910390fd5b806001600160a01b03166107a3610f72565b6001600160a01b031614806107c457506107c4816107bf610f72565b610f37565b6107ff5760405162461bcd60e51b8152600401808060200182810382526038815260200180611c136038913960400191505060405180910390fd5b6108098383610f76565b505050565b606061081933610a0f565b67ffffffffffffffff8111801561082f57600080fd5b50604051908082528060200260200182016040528015610859578160200160208202803683370190505b509050600060015b600a548110156108ab573361087582610986565b6001600160a01b031614156108a3578083838151811061089157fe5b60209081029190910101526001909101905b600101610861565b505090565b60006108bc6002610fe4565b905090565b600b6020526000908152604090205481565b6108e46108de610f72565b82610fef565b61091f5760405162461bcd60e51b8152600401808060200182810382526031815260200180611d656031913960400191505060405180910390fd5b610809838383611093565b6001600160a01b038216600090815260016020526040812061094c90836111df565b90505b92915050565b61080983838360405180602001604052806000815250610bdd565b60008061097e6002846111eb565b509392505050565b600061094f82604051806060016040528060298152602001611c756029913960029190611207565b60098054604080516020601f60026000196101006001881615020190951694909404938401819004810282018101909252828152606093909290918301828280156106c75780601f1061069c576101008083540402835291602001916106c7565b60006001600160a01b038216610a565760405162461bcd60e51b815260040180806020018281038252602a815260200180611c4b602a913960400191505060405180910390fd5b6001600160a01b038216600090815260016020526040902061094f90610fe4565b60078054604080516020601f60026000196101006001881615020190951694909404938401819004810282018101909252828152606093909290918301828280156106c75780601f1061069c576101008083540402835291602001916106c7565b610ae0610f72565b6001600160a01b0316826001600160a01b03161415610b46576040805162461bcd60e51b815260206004820152601960248201527f4552433732313a20617070726f766520746f2063616c6c657200000000000000604482015290519081900360640190fd5b8060056000610b53610f72565b6001600160a01b03908116825260208083019390935260409182016000908120918716808252919093529120805460ff191692151592909217909155610b97610f72565b6001600160a01b03167f17307eab39ab6107e8899845ad3d59bd9653f200f220920489ca2b5937696c318360405180821515815260200191505060405180910390a35050565b610bee610be8610f72565b83610fef565b610c295760405162461bcd60e51b8152600401808060200182810382526031815260200180611d656031913960400191505060405180910390fd5b610c358484848461121e565b50505050565b6000346706f05b59d3b2000014610c5157600080fd5b600a805460018101909155610c663382611270565b600c54610c7161139e565b81610c7857fe5b6000838152600b602052604090209190069055905090565b6060610c9b82610f65565b610cd65760405162461bcd60e51b815260040180806020018281038252602f815260200180611d15602f913960400191505060405180910390fd5b60008281526008602090815260409182902080548351601f6002600019610100600186161502019093169290920491820184900484028101840190945280845260609392830182828015610d6b5780601f10610d4057610100808354040283529160200191610d6b565b820191906000526020600020905b815481529060010190602001808311610d4e57829003601f168201915b505060095493945050505060026000196101006001841615020190911604610d94579050610636565b805115610e65576009816040516020018083805460018160011615610100020316600290048015610dfc5780601f10610dda576101008083540402835291820191610dfc565b820191906000526020600020905b815481529060010190602001808311610de8575b5050825160208401908083835b60208310610e285780518252601f199092019160209182019101610e09565b6001836020036101000a03801982511681845116808217855250505050505090500192505050604051602081830303815290604052915050610636565b6009610e70846113d5565b6040516020018083805460018160011615610100020316600290048015610ece5780601f10610eac576101008083540402835291820191610ece565b820191906000526020600020905b815481529060010190602001808311610eba575b5050825160208401908083835b60208310610efa5780518252601f199092019160209182019101610edb565b6001836020036101000a03801982511681845116808217855250505050505090500192505050604051602081830303815290604052915050919050565b6001600160a01b03918216600090815260056020908152604080832093909416825291909152205460ff1690565b600061094f6002836114b0565b3390565b600081815260046020526040902080546001600160a01b0319166001600160a01b0384169081179091558190610fab82610986565b6001600160a01b03167f8c5be1e5ebec7d5bd14f71427d1e84f3dd0314c0f7b2291e5b200ac8c7c3b92560405160405180910390a45050565b600061094f826114bc565b6000610ffa82610f65565b6110355760405162461bcd60e51b815260040180806020018281038252602c815260200180611be7602c913960400191505060405180910390fd5b600061104083610986565b9050806001600160a01b0316846001600160a01b0316148061107b5750836001600160a01b0316611070846106d1565b6001600160a01b0316145b8061108b575061108b8185610f37565b949350505050565b826001600160a01b03166110a682610986565b6001600160a01b0316146110eb5760405162461bcd60e51b8152600401808060200182810382526029815260200180611cec6029913960400191505060405180910390fd5b6001600160a01b0382166111305760405162461bcd60e51b8152600401808060200182810382526024815260200180611bc36024913960400191505060405180910390fd5b61113b838383610809565b611146600082610f76565b6001600160a01b038316600090815260016020526040902061116890826114c0565b506001600160a01b038216600090815260016020526040902061118b90826114cc565b50611198600282846114d8565b5080826001600160a01b0316846001600160a01b03167fddf252ad1be2c89b69c2b068fc378daa952ba7f163c4a11628f55a4df523b3ef60405160405180910390a4505050565b600061094c83836114ee565b60008080806111fa8686611552565b9097909650945050505050565b60006112148484846115cd565b90505b9392505050565b611229848484611093565b61123584848484611697565b610c355760405162461bcd60e51b8152600401808060200182810382526032815260200180611b916032913960400191505060405180910390fd5b6001600160a01b0382166112cb576040805162461bcd60e51b815260206004820181905260248201527f4552433732313a206d696e7420746f20746865207a65726f2061646472657373604482015290519081900360640190fd5b6112d481610f65565b15611326576040805162461bcd60e51b815260206004820152601c60248201527f4552433732313a20746f6b656e20616c7265616479206d696e74656400000000604482015290519081900360640190fd5b61133260008383610809565b6001600160a01b038216600090815260016020526040902061135490826114cc565b50611361600282846114d8565b5060405181906001600160a01b038416906000907fddf252ad1be2c89b69c2b068fc378daa952ba7f163c4a11628f55a4df523b3ef908290a45050565b6040805144602080830191909152428284015243606080840191909152835180840390910181526080909201909252805191012090565b6060816113fa57506040805180820190915260018152600360fc1b6020820152610636565b8160005b811561141257600101600a820491506113fe565b60608167ffffffffffffffff8111801561142b57600080fd5b506040519080825280601f01601f191660200182016040528015611456576020820181803683370190505b50859350905060001982015b83156114a757600a840660300160f81b8282806001900393508151811061148557fe5b60200101906001600160f81b031916908160001a905350600a84049350611462565b50949350505050565b600061094c83836117ff565b5490565b600061094c8383611817565b600061094c83836118dd565b600061121484846001600160a01b038516611927565b815460009082106115305760405162461bcd60e51b8152600401808060200182810382526022815260200180611b6f6022913960400191505060405180910390fd5b82600001828154811061153f57fe5b9060005260206000200154905092915050565b8154600090819083106115965760405162461bcd60e51b8152600401808060200182810382526022815260200180611c9e6022913960400191505060405180910390fd5b60008460000184815481106115a757fe5b906000526020600020906002020190508060000154816001015492509250509250929050565b600082815260018401602052604081205482816116685760405162461bcd60e51b81526004018080602001828103825283818151815260200191508051906020019080838360005b8381101561162d578181015183820152602001611615565b50505050905090810190601f16801561165a5780820380516001836020036101000a031916815260200191505b509250505060405180910390fd5b5084600001600182038154811061167b57fe5b9060005260206000209060020201600101549150509392505050565b60006116ab846001600160a01b03166119be565b6116b75750600161108b565b60606117c5630a85bd0160e11b6116cc610f72565b88878760405160240180856001600160a01b03168152602001846001600160a01b0316815260200183815260200180602001828103825283818151815260200191508051906020019080838360005b8381101561173357818101518382015260200161171b565b50505050905090810190601f1680156117605780820380516001836020036101000a031916815260200191505b5095505050505050604051602081830303815290604052906001600160e01b0319166020820180516001600160e01b038381831617835250505050604051806060016040528060328152602001611b91603291396001600160a01b03881691906119f7565b905060008180602001905160208110156117de57600080fd5b50516001600160e01b031916630a85bd0160e11b1492505050949350505050565b60009081526001919091016020526040902054151590565b600081815260018301602052604081205480156118d3578354600019808301919081019060009087908390811061184a57fe5b906000526020600020015490508087600001848154811061186757fe5b60009182526020808320909101929092558281526001898101909252604090209084019055865487908061189757fe5b6001900381819060005260206000200160009055905586600101600087815260200190815260200160002060009055600194505050505061094f565b600091505061094f565b60006118e983836117ff565b61191f5750815460018181018455600084815260208082209093018490558454848252828601909352604090209190915561094f565b50600061094f565b60008281526001840160205260408120548061198c575050604080518082018252838152602080820184815286546001818101895560008981528481209551600290930290950191825591519082015586548684528188019092529290912055611217565b8285600001600183038154811061199f57fe5b9060005260206000209060020201600101819055506000915050611217565b6000813f7fc5d2460186f7233c927e7db2dcc703c0e500b653ca82273b7bfad8045d85a47081811480159061108b575050151592915050565b606061121484846000856060611a0c856119be565b611a5d576040805162461bcd60e51b815260206004820152601d60248201527f416464726573733a2063616c6c20746f206e6f6e2d636f6e7472616374000000604482015290519081900360640190fd5b60006060866001600160a01b031685876040518082805190602001908083835b60208310611a9c5780518252601f199092019160209182019101611a7d565b6001836020036101000a03801982511681845116808217855250505050505090500191505060006040518083038185875af1925050503d8060008114611afe576040519150601f19603f3d011682016040523d82523d6000602084013e611b03565b606091505b50915091508115611b1757915061108b9050565b805115611b275780518082602001fd5b60405162461bcd60e51b815260206004820181815286516024840152865187939192839260440191908501908083836000831561162d57818101518382015260200161161556fe456e756d657261626c655365743a20696e646578206f7574206f6620626f756e64734552433732313a207472616e7366657220746f206e6f6e20455243373231526563656976657220696d706c656d656e7465724552433732313a207472616e7366657220746f20746865207a65726f20616464726573734552433732313a206f70657261746f7220717565727920666f72206e6f6e6578697374656e7420746f6b656e4552433732313a20617070726f76652063616c6c6572206973206e6f74206f776e6572206e6f7220617070726f76656420666f7220616c6c4552433732313a2062616c616e636520717565727920666f7220746865207a65726f20616464726573734552433732313a206f776e657220717565727920666f72206e6f6e6578697374656e7420746f6b656e456e756d657261626c654d61703a20696e646578206f7574206f6620626f756e64734552433732313a20617070726f76656420717565727920666f72206e6f6e6578697374656e7420746f6b656e4552433732313a207472616e73666572206f6620746f6b656e2074686174206973206e6f74206f776e4552433732314d657461646174613a2055524920717565727920666f72206e6f6e6578697374656e7420746f6b656e4552433732313a20617070726f76616c20746f2063757272656e74206f776e65724552433732313a207472616e736665722063616c6c6572206973206e6f74206f776e6572206e6f7220617070726f766564a264697066735822122085da6bca0aab458901531a1a9035fdb90555189c4a3e51732385242262e8147664736f6c63430007000033",
	"linkReferences": {},
	"deployedLinkReferences": {}
}